:100000000C946E010C943B200C9468200C94960187
:100010000C9496010C9496010C9496010C94960104
:100020000C9496010C9496010C9496010C949601F4
:100030000C9496010C9496010C9496010C949601E4
:100040000C94C3210C9496010C94710E0C94AD0E7B
:100050000C9496010C9496010C9496010C949601C4
:100060000C9477020C949601036EDB363D9A9999B5
:10007000993DABAAAA2A3E000000803F084AD73B20
:100080003BCE016E84BCBFFDC12F3D6C74319ABD67
:1000900056833DDA3D00C77F11BED9E4BB4C3E918B
:1000A0006BAAAABE000000803F072C7AA5BA6CC5D7
:1000B00090DA3B9365FC8BBC53F810FD3C56928361
:1000C0004DBD879D3AB63DCBC9BF5BBE73DA0FC944
:1000D0003F05A84CCDB2D44EB93836A9020C50B960
:1000E000918688083CA6AAAA2ABE000000803F2468
:1000F000505352463130332C302C302C312C312A95
:1001000032350D0A24505352463130332C312C30C5
:100110002C302C312A32350D0A24505352463130BE
:10012000332C322C302C302C312A32360D0A24500C
:100130005352463130332C332C302C302C312A3270
:10014000370D0A24505352463130332C342C302C86
:10015000312C312A32300D0A24505352463130337B
:100160002C352C302C312C312A32300D0A245053AE
:1001700052463130332C362C302C302C312A32324E
:100180000D0A24505352463130332C382C302C3049
:100190002C312A32430D0A24505352463135312C2A
:1001A000312A33460D0A24505352463130362C3210
:1001B000312A30460D0A0024504D544B3331342C33
:1001C000302C302C312C312C302C302C302C302C4D
:1001D000302C302C302C302C302C302C302C302C3F
:1001E000302A32380D0A24504D544B3333302C30E2
:1001F0002A32450D0A24504D544B3331332C312AC9
:1002000032450D0A24504D544B3330312C322A32B2
:10021000450D0A0024505542582C34302C67676134
:100220002C302C312C302C302C302C302A37420DF5
:100230000A24505542582C34302C7674672C302CBC
:10024000312C302C302C302C302A37460D0A2450DB
:100250005542582C34302C726D632C302C302C309D
:100260002C302C302C302A36370D0A004750524D96
:10027000430047504747410047505654470000004D
:100280000000240027002A000000000025002800AC
:100290002B000000000023002600290004040404B1
:1002A0000404040402020202020203030303030320
:1002B00001020408102040800102040810200102FD
:1002C00004081020000000070002010000030406DB
:1002D0000000000000000000BA04FB0E11241FBE45
:1002E000CFEFD8E0DEBFCDBF11E0A0E0B1E0E4E3A6
:1002F000FFE402C005900D92AE3AB107D9F714E0C1
:10030000AEEAB1E001C01D92A535B107E1F712E0F8
:10031000CCEDD2E004C02297FE010E949427C83D94
:10032000D107C9F70E9495200C9498270C940000DF
:10033000880F8093BA000895382F413210F040E0C2
:1003400042C08091AE018823E1F791E09093AE0125
:100350002093B0018FEF80931B021092D601415081
:100360004093D7014F5F9093AF018091AF01330F5E
:10037000832B8093AF018091B101813041F41092C1
:10038000B1018091AF018093BB0085EC01C085EE87
:100390008093BC008091AE018130E1F38091D60161
:1003A000841710F44091D60120E030E00AC0FB0130
:1003B000E20FF31FD901AA54BE4F8C9180832F5FA7
:1003C0003F4F2417A0F3842F08950F931F93582FA6
:1003D000122F413210F081E04AC08091AE01882393
:1003E000E1F782E08093AE010093B0018FEF80933C
:1003F0001B021092D6014093D701A6EBB1E0FB019E
:1004000002C081918D938E2F861B8417D0F310929A
:10041000AF018091AF01550F852B8093AF01809183
:10042000B101813041F41092B1018091AF0180930C
:10043000BB0085EC01C085EE8093BC00112321F048
:100440008091AE018230E1F380911B028F3F11F465
:1004500080E00DC080911B02803211F482E007C061
:1004600080911B02803311F084E001C083E01F9172
:100470000F910895482F613210F081E00895809126
:10048000AE01843011F082E008956093F901A8ED87
:10049000B1E0842F9C01F90102C081918D938E2FD0
:1004A000841B8617D0F380E008959093B501809364
:1004B000B40108959093B3018093B2010895882305
:1004C00011F085EC01C085E88093BC00089585EDAE
:1004D0008093BC008091BC0084FDFCCF1092AE01E3
:1004E000089585EC8093BC001092AE0108951F9290
:1004F0000F920FB60F9211242F933F934F935F9358
:100500006F937F938F939F93AF93BF93EF93FF93DB
:100510008091B90090E0887F90708036910509F451
:10052000F2C081369105CCF58832910509F47BC083
:1005300089329105B4F48031910509F46FC081319D
:1005400091053CF4009709F447C1089709F04FC1A1
:1005500065C08831910509F466C0809709F047C1EC
:1005600082C08034910509F4A4C08134910544F41B
:100570008033910509F482C0C89709F038C189C059
:100580008035910509F489C08835910509F496C034
:100590008834910509F02BC1AEC08839910509F462
:1005A00013C189399105ECF48837910509F4ABC082
:1005B000893791054CF48836910509F4A4C0803739
:1005C000910509F014C19FC08838910509F4FCC059
:1005D0008039910509F49DC08038910509F007C163
:1005E00098C0803B910509F4C6C0813B91054CF44D
:1005F000803A910509F49FC0883A910509F0F7C047
:10060000BAC0803C910509F4E3C0883C910509F427
:10061000DFC0883B910509F0EAC0C2C08091AF01FC
:100620008093BB00CFC09091D6018091D7019817DD
:1006300068F49091D601E92FF0E0EA54FE4F8081F2
:100640008093BB009F5F9093D601BCC08091B001A6
:10065000882309F44BC085ED8093BC008091BC00D9
:1006600084FDFCCFC2C080E280931B0285ED8093A5
:10067000BC008091BC0084FDFCCFB7C080E38093B8
:100680001B0285ED8093BC008091BC0084FDFCCFF3
:10069000ACC088E380931B029BC08091D6019091EF
:1006A000BB00E82FF0E0EA54FE4F90838F5F809309
:1006B000D6019091D6018091D70182C08091D60158
:1006C0009091BB00E82FF0E0EA54FE4F90838F5FDB
:1006D0008093D6018091B001882341F085ED80930D
:1006E000BC008091BC0084FDFCCF7FC081E0809382
:1006F000B10184EA6EC085ED8093BC008091BC009E
:1007000084FDFCCF72C083E08093AE0110921A0288
:1007100059C080911A02803208F056C080911A02A6
:100720009091BB00E82FF0E0E650FE4F90838F5F82
:1007300080931A0247C080911A02803230F4E0910F
:100740001A02F0E0E650FE4F108285ED8093BC0067
:100750008091BC0084FDFCCF1092AE0160911A0222
:10076000E091B401F091B5018AEF91E070E0099554
:1007700010921A022DC084E08093AE011092F8010D
:100780001092F901E091B201F091B30109958091C5
:10079000F901882329F481E08093F9011092D801AE
:1007A0009091F801E92FF0E0E852FE4F80818093AC
:1007B000BB009F5F9093F8019091F8018091F9013F
:1007C000981710F485EC01C085E88093BC000FC039
:1007D00085EC8093BC0009C010921B0285ED8093CC
:1007E000BC008091BC0084FDFCCF1092AE01FF9153
:1007F000EF91BF91AF919F918F917F916F915F9199
:100800004F913F912F910F900FBE0F901F90189511
:100810001092AE0181E08093B0011092B10182E1AB
:1008200061E00E94EC2283E161E00E94EC22E9EBAE
:10083000F0E080818E7F808380818D7F808388E45B
:100840008093B80085E48093BC0008951F93FC0159
:1008500099278827BC01E89411911032E9F31930E7
:1008600010F01E30C8F31B3251F01D3249F4689469
:1008700006C00E946B04610F711D811D911D1191B5
:1008800010531A30B0F33EF49095809570956195B1
:100890007F4F8F4F9F4F1F910895FB01DC018D917A
:1008A000059080190110D9F3990B0895DF92EF920A
:1008B000FF920F931F93D72E7A018C01FA010995AD
:1008C000C80101966D2DF70109951F910F91FF90B9
:1008D000EF90DF900895592F482F372F262F660F5E
:1008E000771F881F991F660F771F881F991F620F38
:1008F000731F841F951F660F771F881F991F089508
:1009000081E08093610260933E0210925F02109238
:100910006002089520913D0230E080913C02281B46
:100920003109C901089540913C0280913D02481768
:1009300018F02FEF3FEF0AC0E42FF0E0E45EFD4F28
:100940008081282F30E04F5F40933C02C901089519
:10095000E0913C0280913D02E81718F0EFEFFFEFC5
:1009600006C0F0E0E45EFD4F8081E82FF0E0CF01AB
:1009700008950895109265021092640288EE93E043
:10098000A0E0B0E08093660290936702A0936802B3
:10099000B09369028FE791E09093630280936202C3
:1009A0000895CF92DF92EF92FF920F931F93CF9310
:1009B000DF937C016B018A01809161028823A1F0A1
:1009C000C0E0D0E00DC0D701ED91FC91D601AC0F95
:1009D000BD1F0190F081E02DC7016C910995219612
:1009E000C017D10780F304C0CB01642F0E943A02E4
:1009F000C801DF91CF911F910F91FF90EF90DF9091
:100A0000CF900895DF93CF930F92CDB7DEB7FC015F
:100A10006983809161028823C9F0809160028032ED
:100A200038F081E090E09383828320E030E015C0CD
:100A300080915F02E82FF0E0E15CFD4F99819083A7
:100A40008F5F80935F028093600205C0CE010196A4
:100A500061E00E943A0221E030E0C9010F90CF919D
:100A6000DF9108950F93062F80913E026FE372E0AD
:100A70004091600221E00E94E50110925F02109215
:100A80006002109261020F91089561E00E943205A8
:100A90000895413208F040E2862F6CE172E00E9436
:100AA0009C0110923C0280933D02089521E00E9437
:100AB0004905089510923C0210923D0210925F0287
:100AC000109260020E94080408952CB5382F3370EC
:100AD0002C7F322B3CBD2DB590E095958795959553
:100AE000879581702E7F822B8DBD08958AE061E00D
:100AF0000E94EC228AE061E00E94AD228CB5806108
:100B00008CBD8CB580648CBD8DE061E00E94AD220F
:100B10008BE061E00E94AD220895EF92FF920F9367
:100B20001F93CF93DF93EC018B017C0107C0E88119
:100B3000F9810190F081E02DC7010995F8010F5F5F
:100B40001F4F6491662399F7DF91CF911F910F9109
:100B5000FF90EF9008950F931F93DC01ED91FC91AE
:100B60000288F389E02D20E030E000E010E00995F4
:100B70001F910F9108958F92AF92CF92EF92FF92B3
:100B80000F931F93DF93CF93CDB7DEB7FC01138292
:100B9000128288EE93E0A0E0B0E084839583A68380
:100BA000B7838FE891E091838083558744873787A7
:100BB0002687118B008BF38AE28AC48AA58A868AEB
:100BC00070E0CB0123E0880F991F2A95E1F79C0183
:100BD00022593D4F308F278B8A589D4F928F818F9E
:100BE00081E090E002C0880F991F6A95E2F720919A
:100BF0007E02282B20937E02CF0140E051EE60E080
:100C000070E00E94AB05CF91DF911F910F91FF9093
:100C1000EF90CF90AF908F900895FC01838D882343
:100C200019F42FEF3FEF0DC00788F08DE02D2081E4
:100C3000318182819381281B390B848195812823FE
:100C40003923C9010895FC01838D882319F42FEFFE
:100C50003FEF11C0018CF28DE02D20813181828126
:100C60009381281B390B2095309584819581282309
:100C700039232F5F3F4FC9010895FC01838D8823DD
:100C800061F0A789B08D2D913C91119712968D91AD
:100C90009C9113972817390721F44FEF5FEFCA0192
:100CA000089512968D919C9113971696ED91FC9153
:100CB0001797E80FF91F408112968D919C91139719
:100CC000019614962D913C911597822393231396A8
:100CD0009C938E93129750E0E2CFFC01838D882382
:100CE00051F00788F08DE02D208131818281938140
:100CF0002817390721F42FEF3FEFC90108958281AA
:100D000093810680F781E02DE80FF91F8081282F5D
:100D100030E0F3CFDC015796ED91FC91589782813A
:100D20009381918380835996ED91FC915A978081AC
:100D30009181938382830895DC015B968C915B970C
:100D40008823A9F15996ED91FC915A972081318120
:100D50002F5F3F4F84819581282339235C968C91A6
:100D60005C97882329F08281938128173907F9F04D
:100D70008281938128173907D9F380819181068078
:100D8000F781E02DE80FF91F60835996ED91FC91F2
:100D90005A97318320835296ED91FC91539780812D
:100DA00056969C91892B808321E030E002C020E0A0
:100DB00030E0C9010895CF93DF93EC011B821A82C2
:100DC0008A819B81998388831D821C828E819F8169
:100DD000009721F00E942B211F821E82DF91CF916C
:100DE00008950F931F938C01DC015296ED91FC91B5
:100DF0005397208156968C91569755969C9155976E
:100E0000892B80958223808357968D919C9158974A
:100E10000E94DB06F801818D928D0E94DB06D801CD
:100E20005B961C921F910F9108950F931F93CF9380
:100E3000DF938C01FC011382128282819381918362
:100E4000808341E0A1E0B0E001C04F5FFD01042ECE
:100E500002C0EE0FFF1F0A94E2F79B0182E06130AF
:100E6000780710F020E032E0E217F30770F3C1E0FA
:100E7000D0E002C0CC0FDD1F4A95E2F72197F801C0
:100E8000268137812115310541F0848195818C17A8
:100E90009D0789F0C9010E942B21F801D583C483E5
:100EA000CE0101960E94A4209C01F80197838683BD
:100EB00080E0232B09F081E0DF91CF911F910F910A
:100EC0000895AF92BF92CF92DF92EF92FF920F936D
:100ED0001F93CF93DF93EC015A016B0179018B8D46
:100EE0008823A1F12115310539F4EF89F88DE480CB
:100EF000F5800894E11CF11C0115110531F4E98D10
:100F0000FA8D048115810F5F1F4FEF89F88D848161
:100F100095810196E816F90691F4E98DFA8D8481A0
:100F2000958101960817190751F4EA89FB892081F8
:100F30008E899D89892B80958223808328C0E881B2
:100F4000F9810088F189E02DCE0109958F89988D6E
:100F5000E114F10419F470E8E72EF12CB7010E94B6
:100F60001507882361F0898D9A8D0115110511F4FB
:100F700000E110E0B8010E941507882341F4E881E0
:100F8000F9810088F189E02DCE0109954CC0E98DE9
:100F9000FA8D138212828281938191838083EF89FB
:100FA000F88D13821282828193819183808381E004
:100FB0008B8F1A141B041C041D0454F5E889F9894D
:100FC00080E0A81681EEB80680E0C80680E0D8066A
:100FD00031F181E090E00C8802C0880F991F0A94DB
:100FE000E2F7808360E079E08DE390E0A60195016F
:100FF0000E9455272150304040405040569547951B
:1010000037952795EC85FD853083EE85FF85208318
:10101000EA89FB8980819D89892B808304C01082A5
:1010200020E130E0EFCFDF91CF911F910F91FF9042
:10103000EF90DF90CF90BF90AF900895FC0174AB1C
:1010400063AB87EA91E0918380830895DF92EF920A
:10105000FF920F931F939C01275A3F4FD90101C064
:1010600011967C91872F992787FD9095C0970A97B5
:10107000B8F3AD01421B530BF901DD249AE00AC01D
:10108000DD2019F0D99ED02C112481918053D80EE7
:1010900041505040433051059CF760E09AE008C051
:1010A000662319F0699F602D112481918053680F88
:1010B000EA17FB07A8F37E3219F020E030E022C0E7
:1010C000119620E030E040E050E0C901880F991F00
:1010D00073E0220F331F7A95E1F7280F391F8C91A7
:1010E000E82FFF27E7FDF095CF01C0970A9728F476
:1010F000205330402E0F3F1F11964F5F5F4F4530FA
:10110000510519F7790100E010E070E080E090E00F
:1011100020EA36E841E050E00E943627E60EF71E4E
:10112000081F191FC801B70126E030E040E050E079
:101130000E94552779018A016D2D70E080E090E0D2
:1011400020E432E44FE050E00E943627E60EF71E1E
:10115000081F191FB701C8011F910F91FF90EF9051
:10116000DF900895EF92FF920F931F93CF93DF9339
:10117000EC01C75ADF4FCE010E94260424E630E07E
:1011800040E050E00E9436277B018C0101C021968F
:101190002881822F992787FD9095C0970A97B8F3E9
:1011A0002E3249F52981822F992787FD9095C09786
:1011B0000A9708F58AE02802C0011124805E914058
:1011C000AA2797FDA095BA2FE80EF91E0A1F1B1F2C
:1011D0008A81282F332727FD3095205330402A302D
:1011E000310548F4C901AA2797FDA095BA2FE80E4A
:1011F000F91E0A1F1B1FB701C801DF91CF911F9174
:101200000F91FF90EF9008950F931F93CF93DF936B
:10121000EC01C85ADF4F8881C855D040882309F4B3
:1012200015C1C75ADF4F9881C955D040892F8154C5
:10123000863038F4292F332727FD30952753304047
:101240000CC0292F332727FD30959156963018F47E
:101250002755304002C020533040C65ADF4F4881E6
:10126000CA55D040842F8154863030F4842F99277A
:1012700087FD9095C7970BC0842F992787FD909580
:101280004156463018F48755904001C0C097F4E0AD
:10129000220F331FFA95E1F7982F920FC95ADF4FAB
:1012A0008881C755D040981709F0FCC1C559DF4F58
:1012B0008881CB56D040FE01E859FF4F882309F4BE
:1012C000BDC08081803409F457C0803609F49DC0C8
:1012D000803209F0E5C1C459DF4F88819981AA8124
:1012E000BB81CC56D0408C839D83AE83BF83C059D5
:1012F000DF4F88819981AA81BB81C057D040888700
:101300009987AA87BB87CC58DF4F688179818A810A
:101310009B81C457D0402AE030E040E050E00E947A
:1013200036276C877D878E879F87C858DF4F6881F7
:1013300079818A819B81C857D0400E943627688B6B
:10134000798B8A8B9B8BC058DF4F88819981AA81CA
:10135000BB81C058D040888F998FAA8FBB8FCC5744
:10136000DF4F88819981AA81BB81C458D0408C8F7E
:101370009D8FAE8FBF8F46C0C458DF4F8881998143
:10138000AA81BB81CC57D0408C8B9D8BAE8BBF8B01
:10139000C459DF4F88819981AA81BB81CC56D04046
:1013A0008C839D83AE83BF83CC58DF4F6881798166
:1013B0008A819B81C457D0402AE030E040E050E071
:1013C0000E9436276C877D878E879F87C858DF4F9E
:1013D000688179818A819B81C857D0400E943627D5
:1013E000688B798B8A8B9B8BC657DF4F8881CA5855
:1013F000D0408EA3C857DF4F88819981C858D0400C
:101400009DA38CA381E088A74EC1C058DF4F88817F
:101410009981AA81BB81C058D040888F998FAA8FAB
:10142000BB8FCC57DF4F88819981AA81BB81C4587B
:10143000D0408C8F9D8FAE8FBF8F32C18081803224
:1014400019F0803409F02CC118A62AC1C759DF4F02
:101450003881C956D040332361F58E01075A1F4F9A
:10146000C8016CE672E00E944D04892B21F4C85932
:10147000DF4F80E20AC0C80162E772E00E944D04BB
:10148000892B29F4C859DF4F80E488830BC1C80138
:1014900068E772E00E944D04FE01E859FF4F892B76
:1014A00031F480E68083C559DF4F81E0EECF1082B2
:1014B000F9C0C859DF4F8881C856D040882309F445
:1014C000F1C0C75ADF4F2881C955D040222309F403
:1014D000E9C090E0830F911D8434910509F49FC009
:1014E000853491059CF58832910509F4CFC0893285
:1014F0009105DCF48432910509F48AC085329105A6
:1015000064F48232910509F444C0833291050CF0F1
:1015100079C0819709F0C6C067C08632910509F489
:1015200084C087970CF09CC07AC08234910509F47E
:1015300069C0833491050CF06BC08932910509F4C0
:1015400059C08134910509F0ADC04EC08834910571
:1015500009F442C0893491053CF48634910509F1BF
:101560008734910584F561C08136910509F48EC0F8
:10157000823691052CF48934910509F093C06AC034
:101580008536910509F46CC08936910509F08AC049
:1015900010C0FE01E559FF4F1082213409F082C0CE
:1015A0000FC0FE01E559FF4F108221330CF47AC0C1
:1015B00007C0FE01E559FF4F10822E3409F472C0B6
:1015C00081E080836FC0CE01875A9F4F0E9426041E
:1015D000C657DF4F688366C0CE010E94B208C85765
:1015E000DF4F798368835EC0CE010E94B208C45980
:1015F000DF4F51C0CE01875A9F4F0E942604C05929
:10160000DF4F49C0CE010E942608CC58DF4F43C0AF
:10161000233509F047C0FE01EC58FF4F0BC0CE0147
:101620000E942608C858DF4F36C02735D9F5FE017D
:10163000E858FF4F80819181A281B381B095A09538
:10164000909581959F4FAF4FBF4F80839183A28329
:10165000B38328C0CE010E94B208C458DF4F1BC01C
:10166000CE010E94B208C058DF4F22E032E040E0D5
:1016700050E00E94362728EE33E040E050E00E9420
:101680005527288339834A835B830CC0CE010E948F
:10169000B208CC57DF4F688379838A839B8302C06B
:1016A00081E001C080E0DF91CF911F910F910895FB
:1016B0001F93CF93DF93EC01162F6432A1F1DC016D
:1016C000A659BF4F65322CF46A3069F06D30C1F510
:1016D0000AC06A3241F06C3299F5FC01E95AFF4FB9
:1016E0008081862780838C918F3010F090E00AC033
:1016F000FE01E80FF11DE75AFF4F1082CE010E9454
:101700000409982FFE01E759FF4F80818F5F808386
:10171000C659DF4F1882FE01729710821A3249F5BE
:1017200081E0808326C0C659DF4F18821A926297E3
:10173000188261961882609718826396188218C082
:101740008C918E3040F4FE01E80FF11DE75AFF4FF7
:1017500010838F5F8C93C85ADF4F8881C855D04063
:10176000882331F4FE01E95AFF4F8081812780836D
:1017700090E0892FDF91CF911F910895FF920F93F1
:101780001F93CF93DF938C01DC01D396ED91FC91F5
:10179000D497A081B18114962D913C911597CF01DA
:1017A000F9010995EC01FF2413C0F801A3A9B4A91C
:1017B000ED91FC9111970680F781E02DCD010995FF
:1017C000682FC8010E94580B882311F0FF24F3945E
:1017D0002197FFEFCF3FDF0741F78F2DDF91CF91AB
:1017E0001F910F91FF900895EF92FF920F931F9317
:1017F0007C01FC0103A914A9C8016FEE70E00E94EE
:101800008D05C80167EB71E00E948D05C80164E198
:1018100072E00E948D0580EB94E0A0E0B0E0F7015B
:1018200083A794A7A5A7B6A71F910F91FF90EF904C
:101830000895DF93CF93CDB7DEB7CF91DF910895B1
:101840002F923F924F925F926F927F928F929F92D0
:10185000AF92BF92CF92DF92EF92FF920F931F93BE
:10186000DF93CF93CDB7DEB764970FB6F894DEBFA2
:101870000FBECDBF1C01DC01ED91FC910480F58110
:10188000E02D0995182F0E940B222B013C011123FA
:1018900051F5F10181AD92ADA3ADB4ADA3019201BB
:1018A000281B390B4A0B5B0B83A594A5A5A5B6A5F0
:1018B00082179307A407B50708F055C116AE15AEF9
:1018C0000190F081E02DD101D7966D917C91D89750
:1018D0000190F081E02DC1010995F10141AE52AEB8
:1018E00063AE74AE40C1D10198968C91882319F4EF
:1018F00021E030E002C022E030E0F10136AF25AF58
:1019000081E081A787A3D101D9964D925D926D9216
:101910007C92DC972230310509F025C19F968D918C
:101920009D910D90BC91A02DA3019201281B390B14
:101930004A0B5B0BCA01B9010E9411252FE632E167
:1019400043E85AE30E946126698B7A8B8B8B9C8BD0
:10195000D10158966D917D918D919C915B970E94DC
:10196000132569877A878B879C879FE3892E912C23
:10197000820C931CD4012D913D914D915C912D874A
:101980003E874F87588BF101648D758D868D978DBD
:101990000E9413252AE037ED43E25CE30E946126B2
:1019A00025E33AEF4EE85CE30E9461267B018C015F
:1019B00069857A858B859C852AE037ED43E25CE377
:1019C0000E9461265B016C01B701C8010E94752469
:1019D00069837A838B839C83B701C8010E94C426E4
:1019E0006D837E838F839887D1019F964D925D9200
:1019F0006D927C92D29758968D919D910D90BC914D
:101A0000A02DF40180839183A283B3832FE430E07F
:101A1000220E331EC601B50129813A814B815C81BA
:101A20000E946126D1016D937D938D939D931D013D
:101A3000C601B5012D813E814F8158850E946126E6
:101A4000F10160837183828393832DEA3FEF220E3D
:101A5000331E69897A898B899C8920E030E040E0D7
:101A600050E40E945626181664F069897A898B8999
:101A70009C8920E030E040E050E00E9471248823FF
:101A8000B1F443E450E0240E351E80E090E0A0E085
:101A9000B0E0F10181939193A193B19381939193DC
:101AA000A193B19380839183A283B3835CC083E4C9
:101AB000C82ED12CC20CD31CD6016D917D918D9175
:101AC0009C9123E333E343E35FE30E9461267B01C0
:101AD0008C016D857E858F8598890E9411259B01DB
:101AE000AC0169857A858B859C850E9493232AE0C9
:101AF00037ED43E25CE30E94612629893A894B89EC
:101B00005C890E9478242AE939E949E95EE30E9468
:101B100061269B01AC01C801B7010E9494237B019F
:101B20008C01F601608371838283938327E430E024
:101B3000220E331E29813A814B815C810E946126ED
:101B4000D1016D937D938D939D931D01C801B701C4
:101B50002D813E814F8158850E946126F10160836D
:101B600071838283938364960FB6F894DEBF0FBEB1
:101B7000CDBFCF91DF911F910F91FF90EF90DF903C
:101B8000CF90BF90AF909F908F907F906F905F901D
:101B90004F903F902F900895880F991FFC01ED59A9
:101BA000FE4F20813181DC01AA0FBB1F37FF06C029
:101BB000FD01E457FD4FA455BD4F05C0FD01E4559F
:101BC000FD4FA457BD4F6D917D918D919C912081CA
:101BD0003181428153810E949323E62F2E2F372F8C
:101BE000482F592FB901CA0108950E94271A609100
:101BF000280470912904882777FD8095982F0E94EA
:101C0000132560938C0270938D0280938E029093C3
:101C10008F0260912A0470912B04882777FD8095AC
:101C2000982F0E94132560939002709391028093E5
:101C300092029093930260912C0470912D04882756
:101C400077FD8095982F0E941325609394027093DE
:101C5000950280939602909397026091220470916E
:101C60002304882777FD8095982F0E941325609381
:101C700098027093990280939A0290939B026091CC
:101C8000240470912504882777FD8095982F0E9461
:101C9000132560939C0270939D0280939E02909303
:101CA0009F026091260470912704882777FD809514
:101CB000982F0E9413256093A0027093A102809335
:101CC000A2029093A30208959C01F999FECF1FBA36
:101CD00032BD21BD60BD0FB6F894FA9AF99A0FBED5
:101CE00008951F920F920FB60F9211242F933F93D6
:101CF0004F938F939F93EF93FF934091C600209152
:101D00006E0230916F022F5F3F4F8091720290916F
:101D10007302282339238091700290917102281751
:101D2000390779F080916E0290916F02E091740210
:101D3000F0917502E80FF91F408330936F022093F2
:101D40006E02FF91EF919F918F914F913F912F9153
:101D50000F900FBE0F901F9018951F920F920FB605
:101D60000F9211242F933F938F939F93EF93FF93A1
:101D700020917802309179028091760290917702D9
:101D800028173907E9F08091780290917902E09163
:101D90007C02F0917D02E80FF91F80818093C600DC
:101DA0008091780290917902019620917A02309187
:101DB0007B0282239323909379028093780210C050
:101DC0002091760230917702809178029091790289
:101DD0002817390729F48091C1008F7D8093C100B5
:101DE000FF91EF919F918F913F912F910F900FBE97
:101DF0000F901F9018956F927F928F92AF92CF9213
:101E0000EF92FF920F931F93A9E76A2EA3E07A2E19
:101E1000C30160E045EC50E024EC30E000EC10E061
:101E2000F1ECEF2EF12CCC24C394E8E9AE2E70E255
:101E3000872E0E94BB0586E993E0B3010E941E082D
:101E40001F910F91FF90EF90CF90AF908F907F9068
:101E50006F9008954F925F926F927F928F929F92B0
:101E6000AF92BF92CF92DF92EF92FF920F931F93A8
:101E7000CF93DF93C0E0D0E085E060E00E94EC22E9
:101E800086E061E00E94EC2285E060E00E94EC22A6
:101E900062E370E080E090E00E9419220E94F50D5C
:101EA00085E061E00E94EC2286E060E00E94EC2286
:101EB00085E061E00E94EC2262E370E080E090E067
:101EC0000E9419222196CB34D105B1F60E94F50D5E
:101ED00064E170E080E090E00E9419220E94F50D1C
:101EE00080918C0290918D02A0918E02B0918F0210
:101EF0008093AC029093AD02A093AE02B093AF0278
:101F00008091900290919102A0919202B0919302DF
:101F10008093B0029093B102A093B202B093B30247
:101F20008091940290919502A0919602B0919702AF
:101F30008093B4029093B502A093B602B093B70217
:101F40008091980290919902A0919A02B0919B027F
:101F50008093B8029093B902A093BA02B093BB02E7
:101F600080919C0290919D02A0919E02B0919F024F
:101F70008093BC029093BD02A093BE02B093BF02B7
:101F80008091A0029091A102A091A202B091A3021F
:101F90008093C0029093C102A093C202B093C30287
:101FA000CC24DD246624772404EC402E02E0502E5D
:101FB0000E94F50D1CEA812E12E0912EBCE8AB2E9A
:101FC000B2E0BB2EE401688179818A819B812DEC8E
:101FD0003CEC4CE45FE30E9461267B018C01F5013F
:101FE00061917191819191915F012DEC3CEC4CE4F8
:101FF0005EE30E9461269B01AC01C801B7010E940B
:102000009423699379938993999304EC12E04C1685
:102010005D06C9F664E170E080E090E00E9419225C
:10202000F5E0CF16D10469F485E060E00E94EC226F
:1020300086E061E00E94EC2285E060E00E94EC22F4
:1020400012C08AE0C816D10474F085E061E00E94F5
:10205000EC2286E060E00E94EC2285E061E00E94D4
:10206000EC22CC24DD240894611C711C90E96916D3
:1020700091E0790621F00894C11CD11C99CF85E02C
:1020800060E00E94EC2286E060E00E94EC2285E0A5
:1020900060E00E94EC2220916D01722F7295707F9A
:1020A00060E0882777FD8095982F0E9413259B017B
:1020B000AC016091C0027091C1028091C202909106
:1020C000C3020E9493236093C0027093C102809365
:1020D000C2029093C302C2E0D0E0F401408151817A
:1020E0006281738189E793E022E030E00E9405205D
:1020F000F4016081718182819381F999FECF0E9400
:10210000E5249B01AC01CE01B90144E65EE00E94EA
:10211000560484E090E0880E991E22960815190551
:10212000E1F681E080938B02DF91CF911F910F91B7
:10213000FF90EF90DF90CF90BF90AF909F908F90E7
:102140007F906F905F904F900895EF92FF920F9362
:102150001F930E940B229B01AC0120937F023093BE
:102160008002409381025093820280918302909179
:102170008402A0918502B091860279018A01E81A51
:10218000F90A0A0B1B0B64E1E616F10401051105BF
:102190000CF44AC18093870290938802A09389022D
:1021A000B0938A0220938302309384024093850285
:1021B00050938602C801B7010E94132520E030E049
:1021C0004AE754E40E947824609313017093140149
:1021D000809315019093160120E030E040E85FE322
:1021E0000E945626181664F480E090E0A0E0B0E06B
:1021F0008093130190931401A0931501B0931601DD
:102200000E94F50D0E9462130E942B160E94F31487
:102210000E940F130E94051B6091D8027091D90291
:102220008091DA029091DB020E94E0249B0177FF0B
:1022300003C0309521953F4FB901882777FD8095E0
:10224000982F0E94132526E33DE847EA50E40E94B8
:10225000562687FF3EC06091DC027091DD028091BE
:10226000DE029091DF020E94E0249B0177FF03C011
:10227000309521953F4FB901882777FD8095982F9C
:102280000E94132526E33DE847EA50E40E945626C3
:1022900087FF1FC06091E0027091E1028091E2022D
:1022A0009091E3020E94E0249B0177FF03C03095E8
:1022B00021953F4FB901882777FD8095982F0E947F
:1022C000132526E33DE847EA50E40E94562688237A
:1022D0003CF081E080933C0385E061E00E94EC22C9
:1022E00080913A0390913B03019690933B03809336
:1022F0003A038330910519F18430910530F4009749
:1023000059F0019709F090C00CC08430910561F13B
:10231000059709F089C082C086E993E00E94200CED
:1023200083C088E00E944023892B09F07DC0809102
:102330008B02882309F078C00E942A0F75C00E9482
:1023400011196091140370911503809116039091F7
:102350001703209118033091190340911A035091EB
:102360001B030E94E91760C080913C03882379F029
:1023700085E061E00E94EC2280913C03883018F0F7
:1023800010923C0308C08F5F80933C0304C085E03B
:1023900060E00E94EC228091AE039091AF03A09187
:1023A000B003B091B103883C9105A105B1051CF4BF
:1023B00085E061E002C085E060E00E94EC2280914F
:1023C000D3039091D4038130910529F0029709F548
:1023D00086E061E020C08091BF03882329F18091CD
:1023E000200390912103019797FF03C09095819559
:1023F0009F4F9093210380932003892B19F486E04B
:1024000060E002C086E061E00E94EC221092BF030F
:102410000BC086E060E00E94EC2206C08FEF9FEFC9
:1024200090933B0380933A031F910F91FF90EF909D
:1024300008950F931F9389E793E040E056E960E029
:1024400070E020E830E000E110E00E94610787E0E2
:1024500061E00E94AD2287E061E00E94EC2285E00D
:1024600061E00E94AD2286E061E00E94AD2285E03D
:1024700061E00E94AD2288E060E00E94AD2288E029
:1024800061E00E94EC220E948A1A85E061E00E94CD
:10249000EC2264EF71E080E090E00E94192286E077
:1024A00061E00E94EC2264EF71E080E090E00E9425
:1024B000192285E061E00E94EC2264EF71E080E087
:1024C00090E00E94192285E060E00E94EC2264EF17
:1024D00071E080E090E00E94192286E060E00E94B6
:1024E000EC2264EF71E080E090E00E94192285E028
:1024F00060E00E94EC2286E993E06FEF7FEF0E949C
:10250000F40B0E94B31980E090E060E070E040E0DE
:1025100050E00E94DC170E942A0F6AEF70E080E012
:1025200090E00E9419220E94F50D0E940B226093F8
:10253000830270938402809385029093860264E103
:1025400070E080E090E00E9419221F910F910895A1
:10255000EF92FF920F931F936091AE037091AF03C0
:102560008091B0039091B10324E630E040E050E068
:102570000E947727CA01B9010E9413257B018C01B3
:1025800020911003309111034091120350911303D5
:102590000E9461262DE334EC40ED53E40E94612655
:1025A0009B01AC016091D0027091D1028091D20266
:1025B0009091D3020E9494236093D0027093D10231
:1025C0008093D2029093D302C801B70120910C03EB
:1025D00030910D0340910E0350910F030E9461262C
:1025E0002DE334EC40ED53EC0E9461269B01AC01DD
:1025F0006091D4027091D5028091D6029091D70259
:102600000E9494236093D4027093D5028093D602E3
:102610009093D7021F910F91FF90EF9008956091D2
:1026200033017091340180913501909136010E94FF
:10263000F82323E333E343EF5FEB0E9461266093CB
:1026400018037093190380931A0390931B036091EE
:102650003701709138018091390190913A012091B0
:102660003B0130913C0140913D0150913E010E945F
:102670001E2423E333E343EF5FE30E94612660936C
:1026800014037093150380931603909317036091BE
:102690002701709128018091290190912A012091B0
:1026A0001B0130911C0140911D0150911E010E949F
:1026B0001E2460931C0370931D0380931E0390934C
:1026C0001F0308952F923F924F925F926F927F92D5
:1026D0008F929F92AF92BF92CF92DF92EF92FF9232
:1026E0000F931F93DF93CF9300D000D0CDB7DEB709
:1026F00080E090E00E94CC0D21E331E54BE85AE305
:102700000E9461266093D8027093D9028093DA0206
:102710009093DB0281E090E00E94CC0D21E331E553
:102720004BE85AE30E9461266093DC027093DD025D
:102730008093DE029093DF0282E090E00E94CC0D55
:1027400021E331E54BE85AE30E9461266093E00201
:102750007093E1028093E2029093E30283E090E0C1
:102760000E94CC0D6093CC027093CD028093CE0278
:102770009093CF0284E090E00E94CC0D6093D00251
:102780007093D1028093D2029093D30285E090E0BF
:102790000E94CC0D6093D4027093D5028093D60230
:1027A0009093D70288E093E068ED72E04CEF52E03E
:1027B0000E94551D84EE92E068E073E040EF52E025
:1027C0000E94551D0E94A8120F2EF0E02F2EF0E05F
:1027D0003F2EF0E04F2EF0E05F2EF02D20923F01D3
:1027E000309240014092410150924201E090130129
:1027F000F090140100911501109116015701680124
:10280000D7FAD094D7F8D0946090EC027090ED0293
:102810008090EE029090EF02C601B501A4019301F1
:102820000E946126609343017093440180934501A7
:10283000909346018091E8029091E902A091EA020A
:10284000B091EB0289839A83AB83BC83C801B70143
:1028500029813A814B815C810E9461266093470106
:10286000709348018093490190934A01C801B701D0
:10287000A40193010E94612660934B0170934C0167
:1028800080934D0190934E0120924F013092500160
:1028900040925101509252016090E4027090E50222
:1028A0008090E6029090E702C601B501A401930171
:1028B0000E946126609353017093540180935501E7
:1028C00090935601C601B50129813A814B815C8103
:1028D0000E946126609357017093580180935901BB
:1028E00090935A01C801B701A40193010E94612687
:1028F00060935B0170935C0180935D0190935E0136
:1029000020925F0130926001409261015092620119
:102910008BE191E06FE371E04DE353E00E948B1D8A
:102920008BE1E82E81E0F82E0DE313E0D7016D91E5
:102930007D918D919C91F80120813181428153815B
:102940000E949423D7016D937D938D939C9313974D
:1029500014966D917D918D919C911797F80124812A
:102960003581468157810E949423D70114966D9337
:102970007D938D939C93179718966D917D918D9172
:102980009C911B97F80120853185428553850E94D3
:102990009423D70118966D937D938D939C931B97E9
:1029A000ECE0F0E0EE0EFF1E045F1F4FFFE3EF16BA
:1029B000F1E0FF0609F0BACF0F900F900F900F9043
:1029C000CF91DF911F910F91FF90EF90DF90CF900B
:1029D000BF90AF909F908F907F906F905F904F903F
:1029E0003F902F9008956F927F928F929F92AF9217
:1029F000BF92CF92DF92EF92FF920F931F9320919D
:102A0000CC023091CD024091CE025091CF02E090A5
:102A1000D002F090D1020091D2021091D3026090C6
:102A2000D4027090D5028090D6029090D702CA014D
:102A3000B9010E9461265B016C01C801B701A801C0
:102A400097010E9461269B01AC01C601B5010E945D
:102A500094237B018C01C401B301A40193010E9462
:102A600061269B01AC01C801B7010E9494230E941A
:102A7000CE2620E030E040E859E30E9461269B0129
:102A8000AC0160E070E080E89FE30E9493230E9425
:102A9000E024CB0177FF03C0909581959F4F880F6D
:102AA000991F22273327281B390B8FEF2F3F380719
:102AB0005CF40F2EF0E0EF2EF0E0FF2EF0E00F2F91
:102AC000F0E01F2FF02D0BC02F5F3F4FB90188277B
:102AD00077FD8095982F0E9413257B018C0182E25F
:102AE00093E06CEC72E043E351E00E94981CC80153
:102AF000B7012FE832EC45E75CE30E9461269B01B9
:102B0000AC0180EF92E062E273E00E941F1DC801F9
:102B1000B7012CEA35EC47E257E30E9461269B019E
:102B2000AC018EE294E062E273E00E941F1D8CEF24
:102B300092E0BC014EE254E00E94551D60911B01E1
:102B400070911C0180911D0190911E0120917503CF
:102B50003091760340917703509178030E9461266B
:102B60007B018C01609127017091280180912901DE
:102B700090912A0120917103309172034091730367
:102B8000509174030E9461269B01AC01C801B701FA
:102B90000E9493239B01AC01CB01DA0180931701C2
:102BA00090931801A0931901B0931A018EE293E05B
:102BB00063E371E00E941F1D8AE394E06EE273E01C
:102BC0002AE939E949E95FE30E941F1D80EF92E09D
:102BD000BC014AE354E00E94551D8EE294E06EE28F
:102BE00073E027E137EB41E558E30E941F1D8CEFAE
:102BF00092E0BC014EE254E00E94551D8CEF92E041
:102C0000BC010E94581C0E94CE267B018C0126E349
:102C10003DE847EA50E40E94562618167CF466E325
:102C20007DE887E290E4A80197010E9478249B0147
:102C3000AC018CEF92E0BC010E941F1D1F910F910F
:102C4000FF90EF90DF90CF90BF90AF909F908F90CC
:102C50007F906F900895AF92BF92CF92DF92EF92E4
:102C6000FF920F931F93DF93CF93CDB7DEB7A49757
:102C70000FB6F894DEBF0FBECDBF8BE191E067E2E7
:102C800071E00E94581C20E030E040E05FEB0E94C1
:102C900061267B018C015E010894A11CB11CC50159
:102CA00067E271E09701A8010E941F1D3DE0C32E5D
:102CB000D12CCC0EDD1EC6016BE171E09701A8019D
:102CC0000E941F1DC501B5014BE151E00E94551D39
:102CD000C601B60147E251E00E94551DCE0149965A
:102CE000B501A6010E94981CC501B5010E94581C9F
:102CF0007B018C0120E030E048EC5FE30E9471240E
:102D00008823CCF4C801B7012AE037ED43E25FE342
:102D10000E94562618167CF460E070E080E490E48F
:102D2000A80197010E94932320E030E040E05FE398
:102D30000E94612620C0C801B70120E030E048ECC5
:102D400052E40E9471248823D4F4C801B7012AE018
:102D500037ED43E25CE30E945626181684F4C8015E
:102D6000B7010E94CE269B01AC0160E070E080E8D4
:102D70009FE30E9478247B018C01CC2402C0CC24E8
:102D8000C3948BE191E0BE016F5F7F4FA801970173
:102D90000E941F1DBE01635F7F4FCB010E94581C24
:102DA0007B018C0120E030E048EC5FE30E9471245D
:102DB0008823CCF4C801B7012AE037ED43E25FE392
:102DC0000E94562618167CF460E070E080E490E4DF
:102DD000A80197010E94932320E030E040E05FE3E8
:102DE0000E94612620C0C801B70120E030E048EC15
:102DF00052E40E9471248823CCF4C801B7012AE070
:102E000037ED43E25CE30E94562618167CF4C801B5
:102E1000B7010E94CE269B01AC0160E070E080E823
:102E20009FE30E9478247B018C0102C0CC24C394D0
:102E300087E291E0BE01635F7F4FA80197010E9486
:102E40001F1DBE01675E7F4FCB010E94581C7B0196
:102E50008C0120E030E048EC5FE30E94712488237D
:102E6000CCF4C801B7012AE037ED43E25FE30E94EA
:102E7000562618167CF460E070E080E490E4A80127
:102E800097010E94932320E030E040E05FE30E943E
:102E9000612620C0C801B70120E030E048EC52E4D0
:102EA0000E9471248823CCF4C801B7012AE037EDD1
:102EB00043E25CE30E94562618167CF4C801B70171
:102EC0000E94CE269B01AC0160E070E080E89FE3A9
:102ED0000E9478247B018C0102C0CC24C39483E33C
:102EE00091E0BE01675E7F4FA80197010E941F1D00
:102EF000CC2009F450C020E030E040E85FE32093AC
:102F00001B0130931C0140931D0150931E0180E072
:102F100090E0A0E0B0E080931F0190932001A09387
:102F20002101B09322018093230190932401A09367
:102F30002501B09326018093270190932801A09347
:102F40002901B0932A0120932B0130932C01409347
:102F50002D0150932E0180932F0190933001A09367
:102F60003101B09332018093330190933401A093E7
:102F70003501B09336018093370190933801A093C7
:102F80003901B0933A0120933B0130933C014093C7
:102F90003D0150933E01A4960FB6F894DEBF0FBEDC
:102FA000CDBFCF91DF911F910F91FF90EF90DF90F8
:102FB000CF90BF90AF90089590936803809367037C
:102FC00070936A036093690350936C0340936B039F
:102FD00008952F923F924F925F926F927F928F92BD
:102FE0009F92AF92BF92CF92DF92EF92FF920F9398
:102FF0001F93DF93CF93CDB7DEB760970FB6F894EA
:10300000DEBF0FBECDBF7B018C0159016A010E945A
:1030100075246D877E878F87988BC801B7010E94C2
:10302000C42669877A878B879C87C601B5010E9471
:1030300075246D837E838F839887C601B5010E94B6
:10304000C42669837A838B839C8360916303709128
:103050006403882777FD8095982F0E9413253B01F4
:103060004C016091650370916603882777FD809518
:10307000982F0E9413251B012C01C401B3012D853B
:103080003E854F8558890E9461267B018C01C201D3
:10309000B10129853A854B855C850E9461269B019B
:1030A000AC01C801B7010E9493237B018C0117FB7F
:1030B000109517F91095609161037091620388274C
:1030C00077FD8095982F0E9413252D813E814F8199
:1030D00058850E9461265B016C01C401B3012985FA
:1030E0003A854B855C850E94612629813A814B8116
:1030F0005C810E9461269B01AC01C601B5010E9462
:1031000094235B016C01C201B1012D853E854F8581
:1031100058890E94612629813A814B815C810E94F5
:1031200061269B01AC01C601B5010E9494239B015D
:10313000AC01C801B7010E941E2420E537E746ED27
:103140005DE30E9493237B018C0160936D03709378
:103150006E0380936F03909370032BED3FE049E47F
:1031600050E40E94562618164CF4C801B7012BED06
:103170003FE049EC50E40E94932312C0C801B7011C
:103180002BED3FE049E450EC0E947124882384F445
:10319000C801B7012BED3FE049EC50E40E949423B5
:1031A00060936D0370936E0380936F03909370032D
:1031B000E0906D03F0906E0300916F031091700327
:1031C000C801B7010E947524609371037093720364
:1031D0008093730390937403C801B7010E94C426BF
:1031E00060937503709376038093770390937803CD
:1031F00060960FB6F894DEBF0FBECDBFCF91DF91C2
:103200001F910F91FF90EF90DF90CF90BF90AF9004
:103210009F908F907F906F905F904F903F902F90F6
:103220000895EF92FF920F931F93DF93CF9300D0F7
:1032300000D000D0CDB7DEB782E692E06EE170E05C
:103240000E94800482E692E063E00E94020582E62A
:1032500092E00E94450582E692E06EE170E046E071
:1032600050E00E94560500E010E07E010894E11C49
:10327000F11C0AC082E692E00E949304F701E00F7D
:10328000F11F80830F5F1F4F82E692E00E948A0445
:10329000892B81F782E692E00E94450506301105F0
:1032A00009F054C0398120E08A8190E0282B392B25
:1032B00080916F0190917001AC01249FC001259F06
:1032C000900D349F900D1124209167033091680375
:1032D000820F931F90936203809361033D8120E0EE
:1032E0008E8190E0282B392B809171019091720191
:1032F000AC01249FC001259F900D349F900D112497
:103300002091690330916A03820F931F90936403A5
:10331000809363033B8120E08C8190E0282B392B44
:103320008091730190917401AC01249FC001259F8D
:10333000900D349F900D112420916B0330916C03FC
:10334000820F931F909366038093650326960FB6B2
:10335000F894DEBF0FBECDBFCF91DF911F910F91CB
:10336000FF90EF9008950F931F9302E612E0C801BB
:103370000E945A056AE070E080E090E00E94192205
:10338000C8016EE170E00E948004C80160E00E9404
:103390000205C80168E70E940205C8010E944505B0
:1033A00062E370E080E090E00E941922C8016EE1C3
:1033B00070E00E948004C80162E00E940205C8011A
:1033C00060E00E940205C8010E94450562E370E0CA
:1033D00080E090E00E94192281E01F910F910895F2
:1033E000809121048F5F8093210408950F931F9390
:1033F000182F062F84E060E00E94EC221EBD0DB461
:1034000007FEFDCF8EB50EBD0DB407FEFDCF8EB508
:1034100084E061E00E94EC221F910F9108951F93B8
:10342000182F106884E060E00E94EC221EBD0DB4ED
:1034300007FEFDCF8EB51EBC0DB407FEFDCF1EB539
:1034400084E061E00E94EC22812F1F9108951F9378
:103450008BE30E940F1A182F8CE30E940F1A312F52
:1034600020E090E0282B392B309323042093220472
:103470008DE30E940F1A182F8EE30E940F1A312F2E
:1034800020E090E0282B392B30932504209324044E
:103490008FE30E940F1A182F80E40E940F1A312F19
:1034A00020E090E0282B392B30932704209326042A
:1034B00083E40E940F1A182F84E40E940F1A312F00
:1034C00020E090E0282B392B309329042093280406
:1034D00085E40E940F1A182F86E40E940F1A312FDC
:1034E00020E090E0282B392B30932B0420932A04E2
:1034F00087E40E940F1A182F88E40E940F1A312FB8
:1035000020E090E0282B392B30932D0420932C04BD
:103510001F91089584E061E00E94AD2284E061E0A3
:103520000E94EC220E94760581E00E9465056AE017
:1035300070E080E090E00E9419228BE660E80E9433
:10354000F61964E670E080E090E00E9419228BE6B4
:1035500063E00E94F61961E070E080E090E00E9474
:1035600019228AE660E10E94F61961E070E080E0CD
:1035700090E00E94192289E163E10E94F61961E05E
:1035800070E080E090E00E9419228AE164E00E94ED
:10359000F61961E070E080E090E00E9419228BE172
:1035A00068E10E94F61961E070E080E090E00E941E
:1035B00019228CE168E00E94F61961E070E080E079
:1035C00090E00E94192288E361E00E94F61961E010
:1035D00070E080E090E00E94192287E360E10E94A1
:1035E000F61961E070E080E090E00E94192261E04D
:1035F00070E080E090E00E94192280E060EF79E1C5
:1036000043E050E00E9418200895CF92DF92EF929D
:10361000FF920F931F93DF93CF93CDB7DEB76697DB
:103620000FB6F894DEBF0FBECDBF8091BD038823D7
:1036300009F497C01092BD0389E793E060E071E060
:103640000E941E1F83E1898383E08A838091A60301
:103650009091A703A091A803B091A9038B83292F70
:103660003A2F4B2F552747FD5A952C839D015527FF
:1036700037FD5095452F2D838B2F9927AA27BB27E0
:103680008E838091A2039091A303A091A403B09193
:10369000A5038F83292F3A2F4B2F552747FD5A9586
:1036A00028879D01552737FD5095452F29878B2F5A
:1036B0009927AA27BB278A876091AA037091AB0339
:1036C0008091AC039091AD0324E630E040E050E0FF
:1036D0000E9477272B873C878091AE039091AF03A0
:1036E0008D879E878091B2039091B3038F87988BCB
:1036F00080919A0390919B03A0919C03B0919D03AC
:10370000898B292F3A2F4B2F55272A8B9D01442730
:1037100055272B8B8B2F9927AA27BB278C8B809122
:1037200076018D8B7E010894E11CF11C870196E1E6
:10373000C92ED12CCC0EDD1E89E793E0F8016191F2
:103740008F010E949C060C151D05B1F760E0DD2479
:10375000F70181917F01680FD60EE017F107C1F7DD
:103760008FC089E793E060E071E00E941E1F6091C6
:10377000140370911503809116039091170321EEA5
:103780003EE245E652E40E94612620E030E048EC4B
:1037900052E40E9461260E94E024F62EE72E6091FA
:1037A00018037091190380911A0390911B0321EE65
:1037B0003EE245E652E40E94612620E030E048EC1B
:1037C00052E40E9461260E94E024162F072F609188
:1037D0001C0370911D0380911E0390911F0321EE25
:1037E0003EE245E652E40E94612620E030E048ECEB
:1037F00052E40E9461260E94E0249B01AC016135E5
:10380000F6E47F07F0E08F07F0E09F072CF0205AE6
:103810003C48404050400CC0203B89EB38078FEFBC
:1038200048078FEF580724F4205633474F4F5F4F18
:1038300086E0898382E08A83FB82EC821D830E838B
:103840002F8338877E010894E11CF11C870189E0F1
:10385000C82ED12CCC0EDD1E89E793E0F8016191D2
:103860008F010E949C060C151D05B1F760E0DD2458
:10387000F70181917F01680FD60EE017F107C1F7BC
:1038800089E793E00E949C0689E793E06D2D0E94F2
:103890009C0666960FB6F894DEBF0FBECDBFCF91E3
:1038A000DF911F910F91FF90EF90DF90CF900895DF
:1038B000AF92BF92CF92DF92EF92FF920F931F933E
:1038C000CF93DF935C016B010F2EF0E0EF2EF0E061
:1038D000FF2EF0E00F2FF0E01F2FF02DC0E0D0E022
:1038E000F501EC0FFD1FD601AC0FBD1F608171818A
:1038F000828193812D913D914D915C910E94612631
:103900009B01AC01C801B7010E9494237B018C018B
:103910002496CC30D10521F7C801DF91CF911F91BA
:103920000F91FF90EF90DF90CF90BF90AF900895F0
:103930008F929F92AF92BF92CF92DF92EF92FF92BF
:103940000F931F934C016B015A01FB016481758138
:1039500086819781FA0120853185428553850E94B1
:1039600061267B018C01F6016085718582859385D6
:10397000F50124813581468157810E9461269B0192
:10398000AC01C801B7010E949323F40160837183E5
:1039900082839383F6016085718582859385F50125
:1039A00020813181428153810E9461267B018C01FB
:1039B000F6016081718182819381F50120853185D5
:1039C000428553850E9461269B01AC01C801B70165
:1039D0000E949323F4016483758386839783F601A1
:1039E0006081718182819381F501248135814681D5
:1039F00057810E9461267B018C01F60164817581EB
:103A000086819781F50120813181428153810E9415
:103A100061269B01AC01C801B7010E949323F40108
:103A200060877187828793871F910F91FF90EF9036
:103A3000DF90CF90BF90AF909F908F9008958F921E
:103A40009F92AF92BF92CF92DF92EF92FF920F932D
:103A50001F93CF93DF934C015B0169017A01C0E0B2
:103A6000D0E084010C0F1D1FF501EC0FFD1F6081DC
:103A7000718182819381A70196010E946126F801DC
:103A800060837183828393832496CC30D10549F778
:103A9000DF91CF911F910F91FF90EF90DF90CF902A
:103AA000BF90AF909F908F900895AF92BF92CF92AA
:103AB000DF92EF92FF920F931F93CF93DF935C01FE
:103AC0006B017A01C0E0D0E085010C0F1D1FF601EB
:103AD000EC0FFD1FD701AC0FBD1F6081718182818A
:103AE00093812D913D914D915C910E949423F80119
:103AF00060837183828393832496CC30D10521F730
:103B0000DF91CF911F910F91FF90EF90DF90CF90B9
:103B1000BF90AF9008952F923F924F925F926F9215
:103B20007F928F929F92AF92BF92CF92DF92EF924D
:103B3000FF920F931F93CF93DF933B011A016C0108
:103B4000AA24BB248CE0482E512C460E571E45C09B
:103B5000F6016081718182819381288139814A8156
:103B60005B810E9461267B018C01F6016481758175
:103B7000868197812C853D854E855F850E946126D3
:103B80009B01AC01C801B7010E9494237B018C0109
:103B9000F6016085718582859385288D398D4A8DE2
:103BA0005B8D0E9461269B01AC01C801B7010E9498
:103BB0009423F40161937193819391934F0124961F
:103BC000C415D50529F68CE090E0A80EB91EC80EE4
:103BD000D91E94E2A916B10429F0E30141018A0C2F
:103BE0009B1CB6CFDF91CF911F910F91FF90EF906B
:103BF000DF90CF90BF90AF909F908F907F906F900D
:103C00005F904F903F902F900895CF92DF92EF9268
:103C1000FF920F931F93CF93DF937C016B018A0177
:103C2000C0E0D0E00FC0D6016D916D01D701ED91DC
:103C3000FC910190F081E02DC7010995C80FD91FB3
:103C4000015010400115110571F7CE01DF91CF91A0
:103C50001F910F91FF90EF90DF90CF900895EF921A
:103C6000FF920F931F938C01DC01ED91FC91019069
:103C7000F081E02D6DE009957C01D801ED91FC917A
:103C80000190F081E02DC8016AE009959C012E0D9C
:103C90003F1DC9011F910F91FF90EF900895CF93A1
:103CA000DF93EC016115710519F420E030E00FC0DD
:103CB000DB010D900020E9F71197A61BB70BE881F7
:103CC000F9810280F381E02DAD0109959C01C901C4
:103CD000DF91CF9108954F925F927F928F929F9242
:103CE000AF92BF92CF92DF92EF92FF920F931F930A
:103CF000DF93CF93CDB7DEB7A1970FB6F894DEBFB1
:103D00000FBECDBF2C01742ECB01223008F42AE067
:103D100019A231E2C32ED12CCC0EDD1E822E9924A5
:103D2000AA24BB24672D752FA50194010E94552755
:103D300079018A01C801B701A50194010E943627C3
:103D4000472D461B0894C108D1084A3014F4405D41
:103D500001C0495CF6014083E114F104010511053D
:103D600021F07E2C5F2DC801DDCFC201B6010E947B
:103D70004F1EA1960FB6F894DEBF0FBECDBFCF91F8
:103D8000DF911F910F91FF90EF90DF90CF90BF9048
:103D9000AF909F908F907F905F904F900895DC013F
:103DA0002115310541F4ED91FC910190F081E02D58
:103DB000642F099508950E946B1E0895CF92DF929B
:103DC000EF92FF920F931F93CF93DF93EC016A0161
:103DD0007B012115310541F4E881F9810190F081E1
:103DE000E02D642F09951FC02A303105D1F477FFEB
:103DF00017C0E881F9810190F081E02D6DE209950D
:103E00008C0144275527BA014C195D096E097F09B9
:103E1000CE012AE00E946B1E9801280F391F04C0B2
:103E20002AE00E946B1E9C01C901DF91CF911F9176
:103E30000F91FF90EF90DF90CF9008950E944F1E5A
:103E400008957F928F929F92AF92BF92CF92DF920E
:103E5000EF92FF920F931F93CF93DF934C017A0160
:103E60008B01722ECB01BA01A80197010E941B277A
:103E7000882321F0C40165E071E021C0C0E0D0E0FA
:103E800057016801E894D7F8C601B5012FEF3FEF5D
:103E90004FE75FE70E941B27882351F4C601B50155
:103EA0002FEF3FEF4FE75FE70E947124181614F0E1
:103EB000C1E0D0E0219739F0C40169E071E00E94CF
:103EC0004F1EEC0193C0C801B7012FEF3FEF4FE742
:103ED0005FE40E945626181654F0C801B7012FEF70
:103EE0003FEF4FE75FEC0E947124882324F4C40164
:103EF0006DE071E0E4CFC801B70120E030E040E0C0
:103F000050E00E94712487FD03C0C0E0D0E00EC0E5
:103F1000D401ED91FC910190F081E02DC4016DE29E
:103F20000995EC0117FB109517F9109520E030E08A
:103F300040E05FE3DD240BC0CA01B90120E030E0BE
:103F400040E251E40E9478249B01AC01D394D71441
:103F500098F3C801B7010E9494235B016C010E9491
:103F6000E5247B018C01C401B801A7012AE030E0FF
:103F70000E94CF1EC80FD91F772039F0C40161E11C
:103F800071E00E944F1EC80FD91FC801B7010E94DF
:103F900011259B01AC01C601B5010E94932324C0E9
:103FA00020E030E040E251E40E9461267B018C0178
:103FB0000E94E0245B016C01CC24B7FCC094DC2C93
:103FC000C401B601A5012AE030E00E94DE1EC80F40
:103FD000D91FC601B5010E9413259B01AC01C80180
:103FE000B7010E9493237A947720D1F6CE01DF9116
:103FF000CF911F910F91FF90EF90DF90CF90BF90E6
:10400000AF909F908F907F900895EF92FF920F93C3
:104010001F937C010E94211F8C01C7010E942F1E4B
:10402000080F191FC8011F910F91FF90EF9008957D
:10403000823000F5E82FF0E0EE0FFF1FEA5BFB4F48
:1040400071836083882319F08130A1F408C08091C6
:1040500069008C7F842B80936900E89A0895809191
:104060006900440F551F440F551F837F842B809395
:104070006900E99A08951F920F920FB60F921124CA
:104080002F933F934F935F936F937F938F939F9360
:10409000AF93BF93EF93FF938091460490914704B1
:1040A000892B29F0E0914604F09147040995FF918E
:1040B000EF91BF91AF919F918F917F916F915F91A0
:1040C0004F913F912F910F900FBE0F901F90189519
:1040D0001F920F920FB60F9211242F933F934F937D
:1040E0005F936F937F938F939F93AF93BF93EF9360
:1040F000FF938091480490914904892B29F0E09125
:104100004804F09149040995FF91EF91BF91AF9157
:104110009F918F917F916F915F914F913F912F91DF
:104120000F900FBE0F901F901895CF93DF930E94B2
:1041300072220E941912C0E0D0E00E94A5102097C0
:10414000E1F30E940000F9CF0F931F93CF93DF9309
:10415000BC018230910510F462E070E0E0915304FC
:10416000F0915404A0E0B0E040E050E024C0808131
:10417000918186179707D0F08617970771F482818F
:104180009381109729F013969C938E9312972CC0CD
:10419000909354048093530427C04115510519F09E
:1041A0008417950718F4EF018D01AC01DF018281BE
:1041B00093819C01F9013097D1F641155105F9F031
:1041C000CA01861B970B8430910580F48A819B81FC
:1041D0000115110521F0F8019383828304C09093A7
:1041E000540480935304FE0132962FC0FE01E80F61
:1041F000F91F6193719302979983888326C08DB7C5
:104200009EB7885790402091770130917801281708
:104210003907C8F4AC01421B530B4617570798F0F7
:10422000CB0102964817590770F0820F931F9093A5
:1042300078018093770190937A0180937901F90155
:104240006193719302C0E0E0F0E0CF01DF91CF9184
:104250001F910F910895CF93DF939C01009709F46C
:104260008FC0EC0122971B821A82609153047091D7
:1042700054046115710581F488819981820F931F1F
:1042800020917701309178012817390739F5D093BB
:104290007801C093770174C0DB0140E050E0AC17B7
:1042A000BD0708F1BB83AA83FE0121913191E20F82
:1042B000F31FAE17BF0779F48D919C911197280FCA
:1042C000391F2E5F3F4F3983288312968D919C9121
:1042D00013979B838A834115510571F4D09354043D
:1042E000C09353044DC012968D919C911397AD01CC
:1042F000009711F0DC01D3CFDA011396DC93CE9353
:104300001297FA0121913191E20FF31FCE17DF07C7
:1043100069F488819981280F391F2E5F3F4FFA0178
:10432000318320838A819B8193838283E0E0F0E064
:10433000DB0112968D919C911397009719F0BC01A7
:10434000FD01F6CFAB014E5F5F4FDB018D919C917C
:10435000840F951F20917701309178012817390734
:1043600079F4309729F4109254041092530402C047
:10437000138212824250504050937801409377014B
:10438000DF91CF9108951F920F920FB60F921124D3
:104390002F933F938F939F93AF93BF9380914E043E
:1043A00090914F04A0915004B09151043091520467
:1043B0000196A11DB11D232F2D5F2D3720F02D5704
:1043C0000196A11DB11D2093520480934E04909339
:1043D0004F04A0935004B093510480914A049091EB
:1043E0004B04A0914C04B0914D040196A11DB11D48
:1043F00080934A0490934B04A0934C04B0934D04D3
:10440000BF91AF919F918F913F912F910F900FBED0
:104410000F901F9018958FB7F89420914E0430910B
:104420004F0440915004509151048FBFB901CA010B
:1044300008959B01AC017FB7F89480914A04909154
:104440004B04A0914C04B0914D0466B5A89B05C0E7
:104450006F3F19F00196A11DB11D7FBFBA2FA92F83
:10446000982F8827860F911DA11DB11D62E0880F2E
:10447000991FAA1FBB1F6A95D1F7BC012DC0FFB7BA
:10448000F89480914A0490914B04A0914C04B0910F
:104490004D04E6B5A89B05C0EF3F19F00196A11D9C
:1044A000B11DFFBFBA2FA92F982F88278E0F911DFE
:1044B000A11DB11DE2E0880F991FAA1FBB1FEA953D
:1044C000D1F7861B970B885E9340C8F2215030408D
:1044D0004040504068517C4F211531054105510540
:1044E00071F60895789484B5826084BD84B5816046
:1044F00084BD85B5826085BD85B5816085BDEEE6EC
:10450000F0E0808181608083E1E8F0E010828081CA
:1045100082608083808181608083E0E8F0E0808138
:1045200081608083E1EBF0E0808184608083E0EB58
:10453000F0E0808181608083EAE7F0E08081846040
:10454000808380818260808380818160808380819C
:10455000806880831092C1000895CF93DF93482F25
:1045600050E0CA0180559D4FFC01349144565D4F87
:10457000FA018491882369F190E0880F991FFC016A
:10458000E258FD4FA591B491FC01E857FD4FC5914C
:10459000D491662351F42FB7F8948C91932F909572
:1045A00089238C93888189230BC0623061F42FB7F3
:1045B000F8948C91932F909589238C938881832BE9
:1045C00088832FBF06C09FB7F8948C91832B8C9360
:1045D0009FBFDF91CF910895482F50E0CA018C53BF
:1045E0009D4FFC012491CA0180559D4FFC0194917F
:1045F00044565D4FFA013491332309F440C022231D
:1046000051F1233071F0243028F42130A1F0223010
:1046100011F514C02630B1F02730C1F02430D9F4A0
:1046200004C0809180008F7703C0809180008F7DCF
:104630008093800010C084B58F7702C084B58F7DD1
:1046400084BD09C08091B0008F7703C08091B00015
:104650008F7D8093B000E32FF0E0EE0FFF1FE8574F
:10466000FD4FA591B4912FB7F894662321F48C9156
:104670009095892302C08C91892B8C932FBF08952C
:10468000682F70E0CB018C539D4FFC012491CB012E
:1046900080559D4FFC01449164567D4FFB019491E0
:1046A000992319F420E030E03CC0222351F123305B
:1046B00071F0243028F42130A1F0223011F514C01B
:1046C0002630B1F02730C1F02430D9F404C08091F5
:1046D00080008F7703C0809180008F7D8093800061
:1046E00010C084B58F7702C084B58F7D84BD09C0AA
:1046F0008091B0008F7703C08091B0008F7D809350
:10470000B000892F90E0880F991F8E569D4FFC01B5
:10471000A591B4918C9120E030E0842311F021E048
:1047200030E0C90108955058BB27AA270ED073C2A4
:1047300033D230F038D220F031F49F3F11F41EF420
:10474000F2C10EF4E095E7FBE8C1E92F86D280F3D1
:10475000BA17620773078407950718F071F49EF57E
:104760009EC20EF4E0950B2EBA2FA02D0B01B901BD
:1047700090010C01CA01A0011124FF27591B99F0D7
:10478000593F50F4503E68F11A16F040A22F232FE3
:10479000342F4427585FF3CF469537952795A79533
:1047A000F0405395C9F77EF41F16BA0B620B730BDA
:1047B000840BBAF09150A1F0FF0FBB1F661F771F4B
:1047C000881FC2F70EC0BA0F621F731F841F48F400
:1047D000879577956795B795F7959E3F08F0B3CF86
:1047E0009395880F08F09927EE0F97958795089570
:1047F0009F939F77EEE389379E0720F4E8E6F0E089
:10480000BAD109C04BD19058A2EA2AED3FE049EC59
:104810005FE39BDF00D20F9007FC90580895BCD156
:1048200058F080E891E009F49EEFBDD128F040E80F
:1048300051E059F45EEF09C076C131C2E92FE0784A
:104840000CD268F3092E052AC1F32617370748074B
:10485000590738F00E2E07F8E02569F0E025E064EE
:104860000AC0EF6307F8009407FADB01B9019D0164
:10487000DC01CA01AD01EF934AD0CDD10AD05F91DE
:10488000552331F02BED3FE049E450FD49EC4CCF8E
:104890000895DF93DD27B92FBF7740E85FE3161651
:1048A000170648075B0710F4D92F04D29F938F9304
:1048B0007F936F93BDD2ECE7F0E038D1ACD12F916C
:1048C0003F914F915F9109D2DD2349F09058A2EAC0
:1048D0002AED3FE049EC5FE3D0785D2736DFDF91DA
:1048E0009AC1F7D008F481E0089565D1E395A4C199
:1048F0000CD091C158D140F04FD130F021F45F3F3E
:1049000019F00BC15111CCC10EC1A7D198F3992355
:10491000C9F35523B1F3951B550BBB27AA27621783
:104920007307840738F09F5F5F4F220F331F441FC8
:10493000AA1FA9F333D00E2E3AF0E0E830D0915000
:104940005040E695001CCAF729D0FE2F27D0660FED
:10495000771F881FBB1F261737074807AB07B0E82C
:1049600009F0BB0B802DBF01FF2793585F4F2AF042
:104970009E3F510568F0D1C093C15F3FECF3983E74
:10498000DCF3869577956795B795F7959F5FC9F79F
:10499000880F911D9695879597F90895E1E0660F28
:1049A000771F881FBB1F621773078407BA0720F0A1
:1049B000621B730B840BBA0BEE1F88F7E09508950A
:1049C00004D06894B1116CC108954FD188F09F57FD
:1049D00090F0B92F9927B751A0F0D1F0660F771F4B
:1049E000881F991F1AF0BA95C9F712C0B13081F02B
:1049F00056D1B1E0089553C1672F782F8827B85F4B
:104A000039F0B93FCCF3869577956795B395D9F78B
:104A10003EF490958095709561957F4F8F4F9F4F95
:104A20000895E89409C097FB3EF4909580957095A1
:104A300061957F4F8F4F9F4F9923A9F0F92F96E9EA
:104A4000BB279395F695879577956795B795F1115F
:104A5000F8CFFAF4BB0F11F460FF1BC06F5F7F4FFC
:104A60008F4F9F4F16C0882311F096E911C077230E
:104A700021F09EE8872F762F05C0662371F096E817
:104A8000862F70E060E02AF09A95660F771F881FE6
:104A9000DAF7880F9695879597F90895DF93CF9366
:104AA0001F930F938B01EC01E9EAF0E03FD0B3D004
:104AB0009801AE018B01EC0160E070E080E89FE3BB
:104AC00032DE6CD19801AE010F911F91CF91DF9131
:104AD00004C1990F0008550FAA0BE0E8FEEF161667
:104AE0001706E807F907C0F012161306E407F507E2
:104AF00098F0621B730B840B950B39F40A2661F056
:104B0000232B242B252B21F408950A2609F4A140F8
:104B1000A6958FEF811D811D089597F99F6780E805
:104B200070E060E008959FEF80EC0895DF93CF93ED
:104B30001F930F93FF92EF92DF927B018C01689499
:104B400005C0DA2EEF01C9D0FE01E894A5912591A8
:104B5000359145915591AEF3EF01F7DDFE019701D7
:104B6000A801DA9479F7DF90EF90FF900F911F91F1
:104B7000CF91DF9108959F938F937F936F93FF93CE
:104B8000EF939B01AC019DD0EF91FF91CFDF2F916F
:104B90003F914F915F9195C000240A941616170615
:104BA00018060906089500240A941216130614061E
:104BB00005060895B8CF59D0E8F3E894EFEFBB2786
:104BC0003FE048EC5FE76B3D73078407950708F10A
:104BD000FF279F57B25A6A4D7F40894CF04032F40C
:104BE000BE556542704F8643FF4F0894EE1F9150AB
:104BF00030F0BB0F661F771F881FFF1FEBCF9EE7AC
:104C0000882332F0BB0F661F771F881F9A95C1F764
:104C10009395E09514C1092E0394000C11F4882398
:104C200052F0BB0F40F4BF2B11F460FF04C06F5F64
:104C30007F4F8F4F9F4F0895EF93E0FF06C0A2EA8A
:104C40002AED3FE049EC5FEB80DDE5DF0F90039458
:104C500001FC9058E1EDF0E08ECF57FD9058440FE5
:104C6000551F59F05F3F71F04795880F97FB991FCB
:104C700061F09F3F79F08795089512161306140688
:104C8000551FF2CF4695F1DF08C016161706180615
:104C9000991FF1CF86957105610508940895E894F0
:104CA000BB2766277727CB0197F9089512DF08F411
:104CB0008FEF08959B01AC0160E070E080E89FE316
:104CC00017CE0BD0A8CF68DF28F06DDF18F0952342
:104CD00009F023CF28CF1124E3CFBFDFA0F3959FA6
:104CE000D1F3950F50E0551F629FF001729FBB27D3
:104CF000F00DB11D639FAA27F00DB11DAA1F649F7F
:104D00006627B00DA11D661F829F2227B00DA11D31
:104D1000621F739FB00DA11D621F839FA00D611DB7
:104D2000221F749F3327A00D611D231F849F600DD8
:104D3000211D822F762F6A2F11249F5750408AF011
:104D4000E1F088234AF0EE0FFF1FBB1F661F771F9D
:104D5000881F91505040A9F79E3F510570F0DDCE5D
:104D60009FCF5F3FECF3983EDCF386957795679590
:104D7000B795F795E7959F5FC1F7FE2B880F911DBB
:104D80009695879597F908959F9315DF0F9007FCE7
:104D9000EE5F52CF11F40EF4C6CE51C066DFD0F3F1
:104DA0009923D9F3CEF39F57550B87FF58D05695CB
:104DB0009795B0E020F4660F771F881FBB1F1F93E5
:104DC0000F9300249001A0018001F001A0E80E0FD4
:104DD0001F1F0A1E511D601B710B8009B50B48F483
:104DE000600F711F801DB51F0E1B1F0B0A0A510992
:104DF00007C02E0F3F1F4A1F0E0F1F1F0A1E511DF7
:104E0000660F771F881FBB1FA695F795E795F8F6E5
:104E10000617170708065B07211D311D411D0F915D
:104E20001F91B901842F9158880F96958795089501
:104E30009B01AC0146CF4DDE880B990B08959F3F37
:104E400049F0915028F4869577956795B7959F5FBF
:104E500080389F4F880F9695879597F908959150C0
:104E60005040660F771F881FD2F70895629FD001C8
:104E7000739FF001829FE00DF11D649FE00DF11D15
:104E8000929FF00D839FF00D749FF00D659FF00DC4
:104E90009927729FB00DE11DF91F639FB00DE11DB1
:104EA000F91FBD01CF0111240895A1E21A2EAA1BFA
:104EB000BB1BFD010DC0AA1FBB1FEE1FFF1FA217CA
:104EC000B307E407F50720F0A21BB30BE40BF50BC7
:104ED000661F771F881F991F1A9469F76095709550
:104EE000809590959B01AC01BD01CF01089597FB82
:104EF000092E05260ED057FD04D0D7DF0AD0001C9E
:104F000038F450954095309521953F4F4F4F5F4F66
:104F10000895F6F790958095709561957F4F8F4F26
:104F20009F4F0895EE0FFF1F0590F491E02D099417
:044F3000F894FFCF23
:104F340044495964006E616E00696E66006F76665E
:104F4400002E000AD7A33C000034430000803F0039
:104F540000000000000000000000000000803F008E
:104F640000000000000000000000000000803F007E
:104F74000000000000803F000000400000404000AE
:104F84000080400000A0400000C0400000E040005D
:104F94000000410100FFFFFFFFFFFF01000100FFD0
:104FA400FF0100FFFFF4FD5504640000000000024F
:104FB40005D1048A049304A804B904000000009CE9
:104FC40006051E0D063D066D068A062306AB05F191
:0E4FD40006610700000000F40B190CBE0B0074
:00000001FF
